:020000040000FA
:FF0000000B1F602873656E643D25640A20696E0088400B070B1F152888400B070B1F3E281435143403000000040089400A07FD4018078A40090FCBC0010009478B007D478A0008470400000088400B070B1F3428F00F8040010F8140030072C70100030088400B070B1F4C2889400A07FD40C53609478B007D478A000847040089400A07FD40010FECC001006BDF010009478B007D478A000847040089400A07FD401C9F01001D9F01004636CA366CD701005A286CDF010009478B007D478A00084704003B0F8700300F890087140A3D8914011D81106B28802887140A3D8914031D0807840087140A3D8914051D820081177928642883140807820083148117712864A0
:FF00FF002887140A3D8914011D81108728922887140A3D8914031D08078400021F831481178D288028010F8B00D86D6B657920312C2025640A006B657920322C2025640A00656570726F6D20646174612830302D4646293A0D0A0025783A00257820000A00446179733A2025642C0A005365633A25640A004C6F7742617454696D65436E742025640A004576656E743A6C6F77206261740A000A4576656E743A4E6F726D616C0A00312E362E38005850303400204D6F64656C3A2025732C5665723A2025732C4F50413A25640A00582D53656E73652056657273696F6E3A20312E33350A006D6375206261743A002564002E256400282564290A0A007369673A20256400
:FF01FE002C2000654D6F64653D25640A000068616C745F690A0068616C745F6F0A000A0A006D6375206261743A002564002E256400282564290A0A00654576656E74466C673A307825780A0A004C6F77426174436865636B436E743A25640A00545F6164633A25642C2000543D25640A000A536D6F6B6553656E736F72746976653A25640A00443A25640A004C3A25640A000A5F73646130766F73203A2025640A005F73646131766F73203A202564200A00536D6F6B652054657374204F6B0A005F69736764617461313A2564000A000A543A2564430A00443A25642C2044566F6C3A002564002E256400202020004C3A25642C204C566F6C3A004C2D443A25642C202E
:FF02FD00445F4C566F6C3A000A536D6F6B6520454D430A00536D6F6B65436F6D70656E736174696F6E446174613A25642C00436E74203A25640A00636F6D70656E736174696F6E207375636365737321200A0053656E736F72746976653A256400536D6F6B65206572720D0A006F70613A25640A004F50413A25640A0073746172743A0A0074656D70206572722C2025640A00626174203A2564005374617274204361696C20536D6F6B650A000A636F2073616D706C653A0028005F69736764617461303A256400536D6F6B654461726B4176673A2025640A00536D6F6B654C696768744176673A2025640A004361726920446174613A2025640A004361726920543A6A
:FF03FC002025640A00536D6F6B6553656E736F727469766520446174613A2025640A00736D6F6B652063616C692065727200536D6F6B6520546573742C204D6F64653D25640A006E657420736D6F6B6520616C61726D0A00E803F203F703FC0306041A04B80B540BF00A8C0A280AC4098403840384038403840384038403840384038403840384038403840388038D039103950399039C03A003A303A703AA03AE03B103B403B703BA03BD03BF03C203C603C803CB03CE03D003D303D603D803DB03DD03E003E303E503E803EA03ED03F003F403F603F903FC03FF030204050408040B040D040E040E041104130415041704190419041D041E042104210422042204238D
:FF04FB0004240424042404240424041A041A041A041A041A041A041A041A041A041A041A041A049D0E890E730E5D0E460E2E0E150EFA0DE00DC50DA80D8A0D6B0D4C0D2B0D0A0DE70CC40CA00C7B0C550C2E0C070CDE0BB60B8C0B620B370B0B0BDF0AB20A860A580A2B0AFD09CF09A009720943091509E708B8088A085C082E080008D307A607790759072107F606CB06A10677064E062606FE05D705B1058B05670541051E05FB04D904B8049704770458043A041C04FF03E303C703AC03910378035F034703300319030203ED02D802C302AF029C02890277026502636F3A25642070706D200A006F66667365743A25642C2000436F5F53616D706C653A2564200ABA
:FF05FA000A0050504D3D25640A00434F416C61726D5468726573686F6C6430203D2025640A00434F416C61726D5468726573686F6C6431203D2025640A00434F416C61726D5468726573686F6C6432203D2025640A00434F416C61726D5468726573686F6C6433203D2025640A00436F3A204F6666736574203D2025640A00536C6F7065203D2025640A004361696C2053746570203D2025640A006661756C745F73616D706C653D25640A0073616D706C653D25640A005374617274204361696C20436F0A0025640A00436F5F6164633D25642C20004261745F566F6C3D002564002E2564000A0053746570323D25646D562C2000543D25640A00536C6F70653D25646C
:FF06F9000A0073746570203220737563636573730A0053746570333D25646D562C2000434F414F2E70706D3D25640A0073746570203320737563636573730A0053746570313D25646D562C20006F66667365743D25640A0073746570203120737563636573730A00436F20546573742C204D6F64653D25640A00436F20416C61726D204D6F64650A00436F204D757465204D6F64650A00436F4D75746554696D65203A25640A0088138813881388138813E803E803E803E803E803E803E803E803E803E803E803E803E803E803E803E803E803E803E803E803E803E803E803E803E803E803E803E803E803E803E803E803E803E803E803E803E803E803E803E803E8034B
:FF07F800E803E803E803E803E803E803E803E803E803E803E803E803E803E803E803E803E803E803E803E803E803E803E803E803E803E803E803E803E803E803E803E803E803E803E80388138813881388138813881388138813881388138F029802A202AC02B602C002CA02D302DD02E602F002F90203030C0315031F03280331033A0343034C0354035D0366036E0377037F0387038F0397039F03A703AF03B603BE03C503CC03D403DB03E203E803EF03F503FC03020408040E0414041A041F0424042A042F04340438043D04410446044A044D045104550458045B045E0461046404660468046A046C046E046F047004710472047304730473047304730473047391
:FF08F70004730473047304730473047304730473041EDE0100912C21DE0100942C020F8140025FA4D00100B42C972C015F025F972C010F8140025F0A34015A8340025A844003478143044782539C0F01438300010F025384000B47820083140C4782009E0F01438300010F02538400010F8200BD2C0B479CC001000C479DC00100010F9EC00100030083140A3D8414843FC52C02070300041B3F0E8900031B8700051D0A3C08070300090F0B42000F0C520A38302D0B4783400C4784400A34035A8140045A824003478143044782530A34815A825A0347814304478253800F8143020F8253060F01438300000F02538400C1248040007000478200020F01438300000F66
:FF09F600025384000D47820083140E478200040F01438300000F025384000D47820083140E47820001478300024784000F478200831410478200010F8340045F055F065F0B54222D0A34835A845A855A865A85171D2D064797C50100054796C50100044795C50100034794C5010003000F5F105F100F92400A348B5A8C5A8F5A905A0F470D4210470E520A38452D90400F470D428F408B549257352D11784E2D8F4190418F540A3D90549178552D8B418C418B540A3D8C540300300F9940310F9A40320F9B40330F9C40340F9D40350F9E40360F9F40370FA040380FA140390FA240410FA340420FA440430FA540440FA640450FA740460FA840295F154716450A3D529B
:FF0AF5002E1747020C18450A3DA62D1747080C18450A3DA62D17470A0C18450A3D902D1747100C18450A3DA62D522E947BA62D000F13428040000F14528140004783400147844015478300164784002D0F8200010F8540065FAC2D1347834014478440055F065F0547B0400647B140930F8040000F8140060F0043AE40000F0153AF40B0540A3DB154304715438140314716538240115F03478B4004478C4017478D4018478E4031250F47AC401047AD402C472E4383002D472F538400C1248040FF0F01438300FF0F0253840000478200115F03478B4004478C4017478D4018478E4031250B4783400C478440034704450A39BA2D30471543AC4031471653AD402C4709
:FF0BF40083002D478400000F82000547304381400647315382400147834002478440845A035F835A045F03470143B04004470253B140315AB15BB05B035F045F83540A3D845405473042064731528A3B4D2E05471543AE4006471653AF402E4783002F478400C12487402C47034280402D47045281400047AA400147AB400047830001478400C12480402E4783002F478400004782002A4783002B4784000747820085540A3D8654182E1547804016478140542E005F015F0300B20F8140000F8240020F8143000F8253492F44475C0A0A39802E010F4643B240000F4753B3403247830033478400C124C44044476E0A0A3D7B2E4447720A0A39382F0D0FDD00D93878D1
:FF0CF3002E382F0A0FDD00D9387D2E382F4447250A0A393F2F010F4643B240000F4753B3403247830033478400C124C4404447640A0A3DE92E0F0A0A3DC02E4447780A0A39382F020F0143C440000F0253C540100F9740185FB20F8340000F8440020F03439540000F045396400147830002478400C1249340BE2494405625B20F8140000F8240020F8143000F8253222F020F01438340000F025384400147830002478400C1248140BE2482400147830002478400C1248040005EDE2E0047DD00D938D82E81540A3D8254CE2E020F4643B240000F4753B3400347814004478240492F020F0143C440000F0253C5400A0F9740185FB20F8340000F8440020F0343954061
:FF0DF200000F045396400147830002478400C1249340BE2494405625B20F8140000F8240020F8143000F82530147830002478400C1248040005E2D2F0047DD00D938172F81540A3D82540D2FD9381D2F81540A3D82540147830002478400C1248040005E2D2F0047DD001D2F020F4643B240000F4753B3404447814045478240492F020F4643B240000F4753B340492F4447DD00D938412F010F4643B240000F4753B3403247C6403347C7404647830047478400C124C440C4505E2E0300903410300C0FB240820FB34055266CDF010001000200943C722F4BDF0100943C7F2F0F5F105FE80F8D40030F8E40080F8B400C5FCE24852F1838632F4BC7010080400054CB8A
:FF0EF100C00100080F00420A3C5F2F632F1838852F020F8B400C5F8424140FB240820FB34055260300135F145F155F165F200F98400A348B5A8C5A8D5A8E5A935A945A955A965A13470F421447105215471152164712520A38B12F13470F4293401447105294401547115295401647125296408B549857912F1778C02F934194419541964193540A3D94540A3D95540A3D96549778CD2F8B418C418D418E418B540A3D8C540A3D8D540A3D8E540300135F145F155F165F0F78DC2F0B4793430C4794530D4795530E4796530A348B5A8C5A8D5A8E5A0A34925B915B905B8F5B0F471045114512450A39D22F03004A478140025F853F825F0A34815A825A9C0F01438300FB
:FF0FF000870F02538400C1248340BE24844053C701008B4054C701008C400D5F0E5F03478F4004479040115F125FCE2713478340144784401547854016478640175F03478B4004478C4005478D4006478E40E80F8F40030F9040115F125F8B270B4783400C4784400D4785400E47864051C70100CB4052C70100CC40520F01438300880F02538400C124CD40BE24CE4048470342494704520A389E6848478342494784520A34035A8540045A86400A34855A865A0547034381400647045382400A34815A825A4B478B404C478C400D5F0E5F4D478F404E479040115F125FCE2713478340144784401547854016478640175F03478B4004478C4005478D4006478E40E883
:FF10EF000F8F40030F9040115F125F8B270B4783400C4784400D4785400E478640115F01478B4002478C4003478D4004478E4031250B47CB400C47CC404B47B4404C47B540D40FB240850FB3405526B2680347B4400447B540E00FB240850FB34055264847B4404947B540EC0FB240850FB34055264B5F4C5F4B4780404C478140030000000000000000000000000000008517BD6803000000000000000000000000008517C66800008517C9688B57C9680300FA0FAB06AB301F0FAB060C470D450A39DC68F10FAA062A30EF680C47010C0D450A39E668F00FAA06060FAA05EF680C47020C0D450A39EF68F00FAA06070FAA052B36AB312A320C470D450A3DFE680C47A2
:FF11EE00010C0D450A390069411F820FBF05183214690C47020C0D450A39146967C70100010C68C501000A3914699B30090F8B40BD0F0B34C3600B349B34AA32170F0B34BB600B34020F8040015F025FAA37AA33AA372A3F20692D078440035F044786402E0703458540054781430647825380571D6901478040024781400A34815B805B0C470D450A3D42690C47010C0D450A3943697D0FBF061836AA3603000C5F0D5FCF605B0F8240485F48478340045F0A34835A845A1E0F03438300850F04538400C1248340BE24844000470342014704520A3C6669C85482574B695A0FC8400047B4400147B5405A0FB240820FB34055264847B440355F650FB240820FB340557E
:FF12ED002648470300020F8C400D5FCF600047CF400147D040456180400047CA404F47C8405047C940ED27E70F0042030F01520A3895690047E0400147E1409969E70FE040030FE1406047B4406147B540FC0FB240850FB3405526604781406147824007C70100834008C701008440037AE569180F0142000F02520A38D56A6D5480400047ED40020F00420A3CD56A030FED4059DF01005ADF01005BDF01005CDF01005DDF01005EDF01005FDF010060DF010061DF010062DF01000347804004478140EF0F8046FF0F8146004787C00100014788C001001D0F8B400C5F8424D56A6D5FE70F01438340FF0F025384400F0F0342000F04520A38F869D9D401000A3DDAD452
:FF13EC0001006B6AD70F01438340FF0F025384401D0F0342000F04520A380F6AD9D401000A3DDAD40100DBD401000A3DDCD401006B6AB90F01438340FF0F025384408B0F0342000F04520A382B6AD9D401000A3DDAD40100DBD401000A3DDCD40100DDD401000A3DDED401006B6A2D0F01438340FF0F02538440C10F0342100F04520A384C6AD9D401000A3DDAD40100DBD401000A3DDCD40100DDD401000A3DDED40100DFD401000A3DE0D401006B6A940F0142110F02520A3C6B6AD9D401000A3DDAD40100DBD401000A3DDCD40100DDD401000A3DDED40100DFD401000A3DE0D40100E1D401000A3DE2D4010059C70100B4405AC70100B540040FB240860FB3405540
:FF14EB00265BC70100B4405CC70100B5401C0FB240860FB34055265DC70100B4405EC70100B540340FB240860FB34055265FC70100B44060C70100B5404C0FB240860FB3405526770F59C20100010F5AD201000A38B76AAF0F5BC20100000F5CD201000A38B76A320F5DC20100000F5ED201000A38B76A020F5FC20100000F60D201000A3CD56A1A0F8B400C5F8424000F88C50100100F87C5010059DF01005ADF01005BDF01005CDF01005DDF01005EDF01005FDF010060DF010061DF010062DF010060478040614781400300090F0B42000F0C520A383C6B0B4783400C4784400A34035A8140045A824003478143044782530A34815A825A0347814304478253800F8E
:FF15EA008143020F8253060F01438300000F02538400C1248D400D47FC0E804000478200020F01438300000F02538400021F8314021F040F01438300000F02538400021F8314021F0147830002478400021F8314021F010F8340045F055F065F0B542A6B0A34835A845A855A865A8517256B8341844185418641034794C60100044795C60100054796C60100064797C60100030004C70100010C05C501000A3D6B6B04C701001A0C05C501000A3DFC6B04C701001B0C05C501000A3D7A6B04C701001C0C05C501000A3DA36B04C70100200C05C501000A390B6CDF0F87C60100FF0F88C6010000DF010001DF0100076C7E0FB240870FB3405526695F725F735F000F88CD
:FF16E900C50100200F87C50100F16B695480400047E940070F00420A3C9C6B695F1435070F8B400C5FDA62020F8F40105FF40F8D40010F8E40070F8B400C5FCE2498324D0F8B40F70F0B34C3600B3498360B6C005F143900711435004794050B6C7247D1407347D240010F5143F240000F5253F3405147B4405247B5408C0FB240870FB34055263B0F5142000F52520A3CED6B79610047FB400147FC40160F0042000F01520A3CD56B070F8B400C5FDA62DF0F87C60100FF0F88C601001A0F8B400C5F84246B0F5142000F52520A3CED6BDF0F87C60100FF0F88C6010000DF010001DF0100070F8B400C5FDA62200F8B400C5F8424070F8B400C5FDA62010F8F40105FBE
:FF17E8000A0F8D400E5F070F8B400C5FCE240B6CDF0F87C60100FF0F88C60100080F80C0010001DF0100070F8B400C5FDA62030019478B401A478C400D5F0E5F17478F4018479040115F125FCE27134783401447844015478540164786400C0F0A34865B855B845B835B8517226C034780400447814003001B0F48438300000F49538400021F8314021F020F8C400D5FCF600047994001479A40B80F97400B0F98400C640047CC400147CD401B0F48438300000F49538400010F82008314000F8200020F8C400D5FCF600047994001479A40B80F97400B0F98400C640047CA400147CB404A47B4404B47B540910FB240860FB34055264C47B4404D47B540A20FB24086A5
:FF18E7000FB34055264847814049478240400F4A42060F4B520A3CAC6C010F8B40F10F0B34C3600B341B0F01438300000F02538400021F8314021F020F8C400D5FCF60F30F0042010F01520A38216D1E0F48438300000F49538400C124CA404A548040004782001D0F48438300000F49538400DE6C170F4A438340FC0F4B538440E60F0342030F04520A38116D4A474C4285404B474D5286400547834006478440630F8343000F8453C60F0342000F04520A38116D1D0F01438300000F02538400C124CA404A548040004782001E0F48438300000F49538400000F82000D0F48438300000F49538400021F8314021F0F0F48438300000F49538400021F8314021F110F99
:FF19E60048438300000F49538400021F8314021F130F48438300000F49538400021F8314021F150F48438300000F49538400021F8314021F020F8140025F236D1E0F01438300000F02538400000F82001D0F48438300000F49538400000F8200015F025F48478340494784401E0F03438300000F04538400C124CA40010F4A420A3C4A6D020F820012C70100814013C701008240017D6D6D0247000D93C001000147040D92C00100210F8B400C5F84246D6D1D0F03438300000F04538400C124CA40010F4A420A3C746D020F820012C70100814013C701008240817C716D0247000D93C001000147020D92C00100210F8B400C5F8424716D030F8140025F746D040F8100
:FF1AE50040025F014780400247814003008E40005FA76D0E5E7F6D14310C5E826D1B320E0F8B409D0F0B34C5600B340E5E8B6D14350C5E8E6D1B36920F8B40310F0B34C5600B34920F8B40310F0B34C5600B34920F8B40310F0B34C5600B34920F8B40310F0B34C5600B34805400470D420A397C6D030004C70100010C05C501000A3DCD6D04C70100050C05C501000A3DCD6D04C70100220C05C501000A3DE36D04C70100230C05C501000A39EE6D00DF010001DF0100EE6D020F8D40010F8C40010F7965070F8B400C5FDA62030F8F40105F700F8D40170F8E40070F8B400C5FCE24EE6D020F8D40010F8C40010F7965CC0FC840010FC9402E64030004C70100010CC4
:FF1BE40005C501000A3D286E04C70100040C05C501000A3D886E04C70100050C05C501000A3D786E04C701001B0C05C501000A3D356E04C701001C0C05C501000A3D696E04C701001D0C05C501000A39896EEF0F87C60100FF0F88C6010000DF010001DF0100070F8B400C5FDA62896E6F0FB240870FB34055266A5F000F88C50100100F87C501006D6E6A5480400047EA40070F00420A3C5C6E6A5F14351B36070F8B400C5FDA62020F8F40105FF40F8D40010F8E40070F8B400C5FCE2498324D0F8B40F70F0B34C3600B349836040F8B400C5F8424896E005F14390071143500479405005F1B3A00721B3600479B05896E070F8B400C5FDA62010F8F40105F0A0F8D76
:FF1CE300400E5F070F8B400C5FCE24896EEF0F87C60100FF0F88C60100070F8B400C5FDA62090F80C0010001DF0100896E7961030004C70100010C05C501000A3DAB6E04C70100190C05C501000A3D0F6F04C701001B0C05C501000A3DC56E04C701001C0C05C501000A392B6F070F8B400C5FDA62046F4E47B4404F47B5405D0FB240870FB34055266C5F6B5FCC0FC840010FC9402E640047020A0A39046F0A0F80C0010001DF01002B6F6C5480400047EC40070F00420A3CF76E6C5F14351B364E470C0C4F450A39DD6E98324D0F8B40F70F0B34C3600B3498366B5480400047EB40010F00420A3CEB6E6B5F190F8B400C5F84242B6F070F8B400C5FDA62020F8F40D2
:FF1DE200105FF40F8D40010F8E400A6F005F14390071143500479405005F1B3A00721B3600479B052B6F010F8F40105F0A0F8D400E5F070F8B400C5FCE242B6F4E470C0C4F450A39276F1E0F80400100C20F8B40ED0F0B34C5600B348057166F183C276F0B0F80C0010001DF01002B6F00DF010001DF01000300CA40143414351B360100005FCA504D6F00478140025F01474842024749520A3C666F14310E0F8B409D0F0B34C5600B341435C20F8B40ED0F0B34C5600B348054346F00478140025F01474842024749520A3C666F14300E0F8B409D0F0B34C5600B341434C20F8B40ED0F0B34C5600B3480544D6F070FCBC001005627306F03008C4043340C47BD000BD8
:FF1EE10047BE00400F8300010F8400080F82000231023D796F021F041F43300300175F000F8B40000F8C404B0F8D40000F8E4019478F401A479040115F125F8B270B4780400C4781400D4782400E4783400300FA0FAB06AB304D30CF31490F0B34BB600B34AA323F0FAB06AB320F0FAA052B36AB312A320B47010C0C450A39B26F411F820FBF05170F0B34BB600B34020F8040015F025FAA37AA33AA372A3FBD6F2D078440035F044786402E070345854005478143064782538057BA6F01478040024781400A34815B805B0B47010C0C450A39DB6F7D0FBF064D34CF35AA36030014311430090F1342000F14520A3CFB6F050F13438140000F14538240115F01478B4025
:FF1FE00002478C400A0F8D400E5F31250B4781400C478240FE6F010F8140025F0F5F105F01478D4002478E40030F8B400C5FCE24030087FB01000EA81B360FA81B32090F1342000F14520A3C29A8050F13438140000F14538240115F01478B4002478C400A0F8D400E5F31250B4781400C4782402CA8010F8140025F0F5F105F01478D4002478E40040F8B400C5FCE2403008B4043340B47BD00400F8300010F8400020F82000230023C42A8021F041F3E078040433000470300100F37A080400047CDC00100090F37A080400047D0C001000A0F37A080400047C940485F4847D1C001004947D2C001000B0F37A080404947D2C0010000474845D1C001000C0F37A08044
:FF20DF00400047C940485F4847D3C001004947D4C001000D0F37A080404947D4C0010000474845D3C001000E0F37A080400047D5C001000F0F37A080400047D6C001004DC70100AA0A0A39B1A853C70100B44054C70100B540640FB240860FB340552651C70100B44052C70100B540750FB240860FB3405526090FCBC00100010F8040015FBCA850C70100B440355F810FB240860FB3405526005F015F030004C70100010C05C501000A3DCCA804C70100170C05C501000A3912ACF4A8595F555F565F575F585F4BA0004701450A39EAA8AD0FB240860FB3405526320F9340145F09A00F5F105FF40F8D40010F8E40070F8B400C5FCE2412ACF40F9340010F944009A022
:FF21DE0000DF010001DF010012AC320F9340145FDF674561D340020F8C400D5FCF600047D1400147D2400B5F0C5F98670047994001479A407F670047CF400147D0405947B440355FBC0FB240860FB34055265147B4405247B540C00FB240860FB3405526CC0FB240860FB3405526115F4F478B4050478C40E80F8D40030F8E4031250B47B4400C47B540D50FB240860FB3405526115F4F478B4050478C40E80F8D40030F8E4031250F47814010478240115F01478B4002478C40640F8D400E5F31250B47B4400C47B540D80FB240860FB3405526115F4F478B4050478C40640F8D400E5F31250F47814010478240115F01478B4002478C400A0F8D400E5F31250B47B4ED
:FF22DD00400C47B540D50FB240860FB3405526115F4F478B4050478C400A0F8D400E5F31250F47B4401047B540D50FB240860FB3405526DC0FB240860FB34055265147994052479A404F479740504798400C640047CF400147D0405954D1405147D94050C70100D4405457C1AAB30F51420A3C12AC4F47B4405047B540DE0FB240860FB34055265347D140525FEC0F5143B440FF0F5253B540EB0FB240860FB340552657474F4383405847505384400347D7400447D8405547514381405647525382400147D5400247D640C30F59420A3C12AC595F0347854004478640040F0A34865B855B8517DCA90547CF400647D0404F47D7405047D840040F0A34825B815B85177B
:FF23DC00EAA90147D5400247D6400A34815A825A9C0F01438300870F02538400C1248540BE24864053C701008B4054C701008C400D5F0E5F05478F4006479040115F125FCE2713478340144784401547854016478640175F03478B4004478C4005478D4006478E40E80F8F40030F9040115F125F8B270B4783400C4784400D4785400E4786404F47834250478452115F03478B4004478C400F0F8D400E5F31250B4783400C4784400347834004478440055F065F03478B4004478C4005478D4006478E40E80F8F40030F9040000F9140000F9240CE2713478340144784401547854016478640520F01438300880F02538400C1248140BE248240175F03478B4004478C40
:FF24DB004005478D4006478E4001478F4002479040115F125F8B270B4783400C4784400D4785400E4786400347E3C001000447E4C001000347B4400447B540F10FB240860FB3405526EE0F63C301008140FF0F64D3010082401F0F0142000F02520A38BDAAFB0FB240860FB3405526020FD0C0010064C701008B400A0F6C6763C701008B400B0F6C6750C701008B40090F6C6755478B400F0F6C67030FC840495F0BAC030FC840495F10AC5447020A0A3944ABB40F51420A3C12AC4F47B4405047B5400B0FB240870FB34055265347D140525FEC0F5143B440FF0F5253B540EB0FB240860FB340552657474F4381405847505382400147D7400247D840554751438340B5
:FF25DA005647525384400347D5400447D640C30F59420A3C12AC595F040F0A34825B815B8517FAAA0147D7400247D840040F0A34845B835B851704AB0347D5400447D6400347CA400147C8400247C940ED270047CF400147D0404F47B4405047B540180FB240870FB3405526010F4F438140FF0F505382405A0F0142000F02520A3840AB250FB240870FB3405526030FD0C00100AA0F8B40100F6C670B5F090F6C67040FC840495F0BAC040FC840495F10ACB30F51420A3C12AC4F47B4405047B540350FB240870FB34055265347D140525FEC0F5143B440FF0F5253B540EB0FB240860FB340552657474F4383405847505384400347D7400447D840554751438140563F
:FF26D90047525382400147D5400247D640C30F59420A3C12AC595F040F0A34845B835B851779AB0347D7400447D840040F0A34825B815B851783AB0147D5400247D6400347834004478440055F065F03478B4004478C4005478D4006478E40E80F8F40030F9040000F9140000F9240CE27134783401447844015478540164786400A34815A825A9C0F01438300870F02538400C1248140BE248240175F03478B4004478C4005478D4006478E4001478F4002479040115F125F8B270B4783400C4784400D4785400E4786400347E5C001000447E6C001000347B4400447B540420FB240870FB34055269B0F65C301008140FF0F66D301008240940F0142000F02520A3841
:FF27D8000DAC4D0FB240870FB3405526010FD0C0010066C701008B400C0F6C6765C701008B400D0F6C6755478B400E0F6C6750C701008B40090F6C67020FC840495F010F11AC020FC840495F000F2C6703008D402B35AB342B30AA32AB332B37AB36AA312A31AA302A302B36AB312A322533170F0B34BB600B3427332230DF0F0B34BB600B3427DF010028DF0100015F025F005F00470C420A3D51ACAA37AA33AA372A3F3BAC2D078440035F044786402E070345854001470542024706520A3C4FAC0547814006478240805434AC0147A7C001000247A8C001000D5E62AC0B5E5EAC140FC10064AC3DC70100C10064AC010FC100BF33BF309B31060F0B34BD600B34296A
:FF28D700DF01002ADF01004334015F025F005F00470C420A3D90ACAA37AA33AA372A3F7AAC2D078F400E5F0F4784402E070E45834001470342024704520A3C8EAC0347814004478240805473AC0147A9C001000247AAC0010043309B35BF37BF34AA36273725372234BF37BF349B351B35030026C701008C400B5F010F13A427C70100994028C701009A40B80F97400B0F98400C640047C8400147C9404847A7C001004947A8C0010029C7010099402AC701009A40B80F97400B0F98400C640047A9C001000147AAC0010048470042494701520A3CE2AC0047484283400147495284400347C8400447C9404A5F4B5FE6AC485F495F4A5F4B5F30C70100B44031C7010045
:FF29D600B5406B0FB240820FB340552627C70100B44028C70100B540800FB240820FB340552629C70100B4402AC70100B540860FB240820FB340552648478040494781400300A3A42B0F0042010F01520A381FAD010F92C0010013DF0100080FAFC00100010F8040015F2AADAC0FB240820FB340552612DF010013DF0100005F015F030004C70100010C05C501000A3D4CAD04C70100050C05C501000A3D4CAD04C70100150C05C501000A3D5EAD04C70100160C05C501000A396FAD00DF010001DF01006FAD020F8D40010F8C40010F7965020F8F40105F700F8D40170F8E40060F8B400C5FCE246FAD0CA50047010C01450A396BAD020F8D40010F8C40010F79656FE2
:FF2AD500AD160F8B400C5F842403003AC7010081403BC701008240B70F01420B0F02520A3897AD530F01420B0F02520A3899ADEF0F01420A0F02520A389CAD8B0F01420A0F02520A389FAD270F01420A0F02520A38A2AD050F8040A4AD005FA4AD010F8040A4AD020F8040A4AD030F8040A4AD040F80400047030027C70100CC4028C70100CD40A3A40047DA400147DB402BC7010099402CC701009A40B80F97400B0F98400C640047ABC001000147ACC001004107B440355FBB0FB240820FB3405526C80FB240820FB3405526EC0F25C30100B440FF0F355FB553CA0FB240820FB340552627C70100B44028C70100B540D20FB240820FB3405526115F27C701008B40E7
:FF2BD40028C701008C40E80F8D40030F8E4031250B47B4400C47B540DE0FB240820FB3405526115F27C701008B4028C701008C40E80F8D40030F8E4031250F47814010478240115F01478B4002478C40640F8D400E5F31250B47B4400C47B540E10FB240820FB3405526115F27C701008B4028C701008C40640F8D400E5F31250F47814010478240115F01478B4002478C400A0F8D400E5F31250B47B4400C47B540DE0FB240820FB3405526115F27C701008B4028C701008C400A0F8D400E5F31250F47B4401047B540DE0FB240820FB3405526E50FB240820FB340552629C70100B4402AC70100B540E90FB240820FB3405526115F29C701008B402AC701008C40E891
:FF2CD3000F8D40030F8E4031250B47B4400C47B540DE0FB240820FB3405526115F29C701008B402AC701008C40E80F8D40030F8E4031250F47814010478240115F01478B4002478C40640F8D400E5F31250B47B4400C47B540E10FB240820FB3405526115F29C701008B402AC701008C40640F8D400E5F31250F47814010478240115F01478B4002478C400A0F8D400E5F31250B47B4400C47B540DE0FB240820FB3405526115F29C701008B402AC701008C400A0F8D400E5F31250F47B4401047B540DE0FB240820FB3405526E50FB240820FB34055265A47B4405B47B540F50FB240820FB3405526115F5A478B405B478C40E80F8D40030F8E4031250B47B4400C47B2
:FF2DD200B540DE0FB240820FB3405526115F5A478B405B478C40E80F8D40030F8E4031250F47814010478240115F01478B4002478C40640F8D400E5F31250B47B4400C47B540E10FB240820FB3405526115F5A478B405B478C40640F8D400E5F31250F47814010478240115F01478B4002478C400A0F8D400E5F31250B47B4400C47B540DE0FB240820FB3405526115F5A478B405B478C400A0F8D400E5F31250F47B4401047B540DE0FB240820FB3405526C80FB240820FB340552627C70100814028C701008240460F01438340000F0253844003474C4204474D520A3871AF460F4C438340000F4D53844003470142044702520A3871AF460F29C301008340000F2A68
:FF2ED100D30100844003470142044702520A3C80AF2DDF01002FDF0100050FB240830FB3405526C80FB240820FB340552659EA5A4781405B4782402C0F0142010F02520A3C38EA0147CC400247CD404E5F4F5F456181400147A5C00100025F0A34815A825A680F01438300840F02538400C1248340BE2484400347834004478440055F065F03478B4004478C4005478D4006478E404C478F404D4790404E4791404F479240CE2713478340144784401547854016478640175F03478B4004478C4005478D4006478E40E80F8F40030F9040115F125F8B270B4783400C4784400D4785400E4786400347DA400447DB4012F80100EEAF050F8B400C5F8424FE0F92C601009B
:FF2FD000FF0F93C601002FDF010059EA034730C20100044731D201000A381EE835DF01002EDF01000B5F0C5F98670047994001479A407F670047BAC001000147BBC0010070A580400047BCC001002DD4010080400047ADC00100020F00420A3C59EA030FADC001000D0F8B400C5F58EA07C70100814008C701008240017B5AE82ED4010080400047AEC00100070F00420A3C59EA2EDF01000147834002478440BF0F8346FF0F8446034787C00100044788C00100100F8B400C5F84242DDF01000B5F0C5F98670047994001479A407F670047BAC001000147BBC0010070A580400047BCC0010059EA2DDF010035DE010059EA35DF010036D4010081400147B6C00100323C
:FF30CF00C70100834333C7010084530347B2C001000447B3C00100025F115F03478B4004478C4001478D4002478E4031250B47B4400C47B540110FB240830FB340552636C701008140025F115F32C701008B4033C701008C4001478D4002478E4031250B4781400C478240115F01478B4002478C40E80F8D40030F8E4031250B47B4400C47B540DE0FB240820FB340552636C701008140025F115F32C701008B4033C701008C4001478D4002478E4031250B4781400C478240115F01478B4002478C40E80F8D40030F8E4031250F47814010478240115F01478B4002478C40640F8D400E5F31250B47B4400C47B540E10FB240820FB340552636C701008140025F115F21
:FF31CE0032C701008B4033C701008C4001478D4002478E4031250B4781400C478240115F01478B4002478C40640F8D400E5F31250F47814010478240115F01478B4002478C400A0F8D400E5F31250B47B4400C47B540DE0FB240820FB340552636C701008140025F115F32C701008B4033C701008C4001478D4002478E4031250B4781400C478240115F01478B4002478C400A0F8D400E5F31250F47B4401047B540DE0FB240820FB340552636C70100B440355F2B0FB240830FB34055260F0F36C201000A3C59EA36DF010032C70100814033C701008240040F0A34825B815B851752E90147B2C001000247B3C0010030C70100834031C701008440170F03438540FFF8
:FF32CD000F0453864001470542024706520A3C33EA7D0F8343FE0F845303470142044702520A3C33EA360F0143B0C00100010F0253B1C00100340FB240830FB340552630C70100B44031C70100B5404C0FB240830FB3405526115F30C701008B4031C701008C40E80F8D40030F8E4031250B47B4400C47B540DE0FB240820FB3405526115F30C701008B4031C701008C40E80F8D40030F8E4031250F47814010478240115F01478B4002478C40640F8D400E5F31250B47B4400C47B540E10FB240820FB3405526115F30C701008B4031C701008C40640F8D400E5F31250F47814010478240115F01478B4002478C400A0F8D400E5F31250B47B4400C47B540DE0FB240EE
:FF33CC00820FB3405526115F30C701008B4031C701008C400A0F8D400E5F31250F47B4401047B540DE0FB240820FB34055263AC7010083403BC701008440BA0F03438140FF0F0453824030C70100014231C7010002520A3C2DEA840F8343FE0F845329C7010003422AC7010004520A3C2DEA33C701008B40020F6C6732C701008B40030F6C6725C701008B40040F6C6733EA0147B0C001000247B1C0010032DF010033DF010059EA5A0FB240830FB34055262FD4010080400047AFC00100070F00420A3C59EA010F92C0010013DF0100080FAFC00100BF0F87C60100FF0F88C60100140F8B400C5F8424030004C70100010C05C501000A3D93EA04C70100040C05C50163
:FF34CB00000A3DEEEA04C701000D0C05C501000A3DDEEA04C701000E0C05C501000A3D9FEA04C701000F0C05C501000A3DBFEA04C70100130C05C501000A39EFEA7F0F87C60100FF0F88C60100060F8B400C5FDA6200DF010001DF0100EFEA655F6F5F000F88C50100800F87C50100010F8F40105FB0EA655480400047E540050F00420A3CB8EA655F1435060F8B400C5FDA62020F8F40105F320F8D400E5F060F8B400C5FCE24EFEA005F14390071143500479405EFEA060F8B400C5FDA62010F8F40105F320F8D400E5F060F8B400C5FCE246F4780400054EF40860F00420A3CD9EA130F8B400C5FDCEA040F8B400C5F8424EFEA7F0F87C60100FF0F88C60100060FD0
:FF35CA008B400C5FDA62030F80C0010001DF0100EFEAA6A5030004C70100010C05C501000A3D2AEB04C70100040C05C501000A3D7FEB04C70100050C05C501000A3D3CEB04C701000E0C05C501000A3D4CEB04C701000F0C05C501000A3D6CEB04C70100100C05C501000A3980EBBF0F87C60100FF0F88C60100060F8B400C5FDA6200DF010001DF0100983680EB000F88C50100400F87C50100010F8F40105F320F8D400E5F060F8B400C5FCE24983280EBBF0F87C60100FF0F88C60100060F8B400C5FDA62040F80C0010001DF010080EB705480400047F040050F00420A3C5FEB705F14351B36060F8B400C5FDA62020F8F40105F77EB005F14390071143500479456
:FF36C90005005F1B3A00721B3600479B0580EB040F8B400C5F8424060F8B400C5FDA62010F8F40105F320F8D400E5F060F8B400C5FCE2480EBA6A5030004C70100010C05C501000A3DB3EB04C70100040C05C501000A3D09EC04C70100050C05C501000A3D00EC04C701000D0C05C501000A3DF6EB04C701000E0C05C501000A3DBDEB04C701000F0C05C501000A3DDDEB04C70100260C05C501000A390AEC00EC3F0FB240840FB3405526645F010F8F40105FCEEB645480400047E440050F00420A3CD6EB645F1B36060F8B400C5FDA62020F8F40105F320F8D400E5F060F8B400C5FCE240AEC005F1B3A00721B3600479B050AEC060F8B400C5FDA62010F8F40105F83
:FF37C800320F8D400E5F060F8B400C5FCE249438F1EB260F8B400C5FF4EB040F8B400C5F84240AEC060F8B400C5FDA62030F80C0010001DF01000AEC060F8B400C5FDA6200DF010001DF01000AECA6A5030004C70100010C05C501000A3D34EC04C701000C0C05C501000A3D90EC04C701000E0C05C501000A3D50EC04C701000F0C05C501000A3D81EC04C70100140C05C501000A39C2EC050F80C0010001DF0100C2EC4C47B4404D47B5402A0FB240840FB3405526675F665F0CA50047010C01450A3949EC140F8B400C5F6BEC4C470B0C4D450A3985EC983285EC675480400047E740050F00420A3C74EC675F14351B36060F8B400C5FDA62665480400047E6400178
:FF38C7000F00420A3C6DEC665F0C0F8B400C5F8424C2EC020F8F40105F640F8D400E5F8BEC005F14390071143500479405005F1B3A00721B3600479B05C2EC060F8B400C5FDA62010F8F40105F320F8D400E5F060F8B400C5FCE24C2EC4C470B0C4D450A39B2EC9836140F80400100C20F8B40ED0F0B34C5600B34805798EC0C0F80C0010001DF0100140F80400100C20F8B40ED0F0B34C5600B348057A8ECC2EC0A0F80400100C20F8B40ED0F0B34C5600B348057B4EC070F80C0010001DF01000300A3A40047834001478440055F065F4C4703424D470452051F0552051F06520A3CE6ECCF0F0342070F0452000F0552000F06520A38E6EC3DC701008B40080F6C67E4
:FF39C600010F8040E7EC005F00470300030FCE40143114304E47BDC00100140FCC40050FCD40C3E480400057FAEC005F1DEEEC0F25C30100B440FF0F355FB553CA0FB240820FB34055263DC70100B440355F660FB240830FB340552627C70100B44028C70100B540D20FB240820FB3405526115F27C701008B4028C701008C40E80F8D40030F8E4031250B47B4400C47B540DE0FB240820FB3405526115F27C701008B4028C701008C40E80F8D40030F8E4031250F47814010478240115F01478B4002478C40640F8D400E5F31250B47B4400C47B540E10FB240820FB3405526115F27C701008B4028C701008C40640F8D400E5F31250F47814010478240115F01478B00
:FF3AC5004002478C400A0F8D400E5F31250B47B4400C47B540DE0FB240820FB3405526115F27C701008B4028C701008C400A0F8D400E5F31250F47B4401047B540DE0FB240820FB3405526E50FB240820FB340552629C70100B4402AC70100B540E90FB240820FB3405526115F29C701008B402AC701008C40E80F8D40030F8E4031250B47B4400C47B540DE0FB240820FB3405526115F29C701008B402AC701008C40E80F8D40030F8E4031250F47814010478240115F01478B4002478C40640F8D400E5F31250B47B4400C47B540E10FB240820FB3405526115F29C701008B402AC701008C40640F8D400E5F31250F47814010478240115F01478B4002478C400A0FBF
:FF3BC4008D400E5F31250B47B4400C47B540DE0FB240820FB3405526115F29C701008B402AC701008C400A0F8D400E5F31250F47B4401047B540DE0FB240820FB3405526E50FB240820FB340552614351434080FCBC001005627CE544E471A0A0A39EBECF40FCC40010FCD40C3E4804000571BEEF8EC100F804000470300070F37A080400047B7C0010000475A0A0A397FEE000F37A080400047D0404F5F4F4789C0010050478AC00100010F37A0804050478AC0010000474F4589C00100020F37A080400047D0404F5F4F47B0C001005047B1C00100030F37A080405047824000474F458140360F0143B0C00100010F0253B1C00100040F37A080400047B4C0010005FB
:FF3CC3000F37A080400047B8C00100060F37A080400047B9C00100080F37A080400047BDC001000047B440355F6E0FB240830FB3405526010F8040015FC3EE760FB240830FB3405526030FA6C00100E9E425C7010080400047D60B81400A0F01420A3CB9EE0100143114301B32610F8B40750F0B34C3600B34143514341B36610F8B40750F0B34C3600B340047B440355F7E0FB240830FB340552643C70100B44044C70100B5408C0FB240830FB340552688EE270F43C201000A0F44D201000A3C92EE005F015F03000B5F0C5F98670047994001479A407F670047BAC001000147BBC0010070A580400047BCC00100010F8B400C5F98670047C1C001000147C2C001004F
:FF3DC2000047994001479A407F670047C3C001000147C4C001001C0FB240820FB34055261F0FB240820FB3405526115F43C701008B4044C701008C40E80F8D40030F8E4031250B47B4400C47B540280FB240820FB3405526115F43C701008B4044C701008C40E80F8D40030F8E4031250F47814010478240115F01478B4002478C40640F8D400E5F31250B47B4400C47B5402B0FB240820FB3405526115F43C701008B4044C701008C40640F8D400E5F31250F47814010478240115F01478B4002478C400A0F8D400E5F31250B47B4400C47B540280FB240820FB3405526115F43C701008B4044C701008C400A0F8D400E5F31250F47B4401047B540280FB240820FB38B
:FF3EC10040552641C70100B44042C70100B5402F0FB240820FB340552607C70100834008C7010084400347814004478240FD0F8146000F8246014702450A39FCEF43C70100814044C701008240270F01420A0F02520A38C5EFC9D401000A3DCAD401000347B4400447B540360FB240820FB340552649C70100B4404AC70100B540470FB240820FB340552607C70100814008C701008240817CC1EF020F49C20100000F4AD201000A3CC1EF030FC9C001004ADF01000247000D88C001000147020D87C00100010FBFC00100F1EFEF0F01420A0F02520A38E4EF48C70100C840010F48420A3CD5EF48DF0100DAEF485EDAEF020FC8C00100030FBFC001005A0F01420A0F24
:FF3FC00002520A3CF1EFE7EF040FBFC0010049DF01004ADF0100FD0F87C60100FF0F88C601003FC70100804040C7010000420A3DFCEF0047C0C0010003001B360300000004C70100010C05C501000A3D0F2804C701000A0C05C501000A39072C39285C5F5D5F5E5F5F5F0B341FE60B30004701450A393328940FB240830FB3400B3455260B30320F9340145F0B3409A00B300F5F105FC80F8D400E5F060F8B400C5F0B34CE240B30072C060F80C0010001DF0100072C714780400054F1400F0F00420A38142B0B34A3A40B300047D1400147D240535F545F5147DC435247DD535347DE535447DF53EC0F25C30100B440FF0F355FB553CA0FB240820FB3400B3455260B12
:FF40BF003027C70100B44028C70100B540D20FB240820FB3400B3455260B30115F27C701008B4028C701008C40E80F8D40030F8E400B3431250B300B47B4400C47B540DE0FB240820FB3400B3455260B30115F27C701008B4028C701008C40E80F8D40030F8E400B3431250B300F47814010478240115F01478B4002478C40640F8D400E5F0B3431250B300B47B4400C47B540E10FB240820FB3400B3455260B30115F27C701008B4028C701008C40640F8D400E5F0B3431250B300F47814010478240115F01478B4002478C400A0F8D400E5F0B3431250B300B47B4400C47B540DE0FB240820FB3400B3455260B30115F27C701008B4028C701008C400A0F8D400E5F89
:FF41BE000B3431250B300F47B4401047B540DE0FB240820FB3400B3455260B30E50FB240820FB3400B3455260B3029C70100B4402AC70100B540E90FB240820FB3400B3455260B30115F29C701008B402AC701008C40E80F8D40030F8E400B3431250B300B47B4400C47B540DE0FB240820FB3400B3455260B30115F29C701008B402AC701008C40E80F8D40030F8E400B3431250B300F47814010478240115F01478B4002478C40640F8D400E5F0B3431250B300B47B4400C47B540E10FB240820FB3400B3455260B30115F29C701008B402AC701008C40640F8D400E5F0B3431250B300F47814010478240115F01478B4002478C400A0F8D400E5F0B3431250B300B89
:FF42BD0047B4400C47B540DE0FB240820FB3400B3455260B30115F29C701008B402AC701008C400A0F8D400E5F0B3431250B300F47B4401047B540DE0FB240820FB3400B3455260B30E50FB240820FB3400B3455260B305147B4405247B5405347B6405447B740F50FB240820FB3400B3455260B30175F51478B4052478C4053478D4054478E40E80F8F40030F9040115F125F0B348B270B300B47B4400C47B5400D47B6400E47B740DE0FB240820FB3400B3455260B30175F51478B4052478C4053478D4054478E40E80F8F40030F9040115F125F0B348B270B3013478340144784401547854016478640175F03478B4004478C4005478D4006478E40640F8F40000F79
:FF43BC009040115F125F0B348B270B300B47B4400C47B5400D47B6400E47B740E10FB240820FB3400B3455260B30175F51478B4052478C4053478D4054478E40640F8F40000F9040115F125F0B348B270B3013478340144784401547854016478640175F03478B4004478C4005478D4006478E400A0F8F40000F9040115F125F0B348B270B300B47B4400C47B5400D47B6400E47B740DE0FB240820FB3400B3455260B30175F51478B4052478C4053478D4054478E400A0F8F40000F9040115F125F0B348B270B301347B4401447B5401547B6401647B740DE0FB240820FB3400B3455260B30C80FB240820FB3400B3455260B30E50FB240820FB3400B3455260B30A6FF
:FF44BB000FB240830FB3400B3455260B30115F2BC701008B402CC701008C40E80F8D40030F8E400B3431250B300B47B4400C47B540DE0FB240820FB3400B3455260B30115F2BC701008B402CC701008C40E80F8D40030F8E400B3431250B300F47814010478240115F01478B4002478C40640F8D400E5F0B3431250B300B47B4400C47B540E10FB240820FB3400B3455260B30115F2BC701008B402CC701008C40640F8D400E5F0B3431250B300F47814010478240115F01478B4002478C400A0F8D400E5F0B3431250B300B47B4400C47B540DE0FB240820FB3400B3455260B30115F2BC701008B402CC701008C400A0F8D400E5F0B3431250B300F47B4401047B540CC
:FF45BA00DE0FB240820FB3400B3455260B30B20FB240830FB3400B3455260B30C80FB240820FB3400B3455260B304007B440355FB40FB240830FB3400B3455260B304107B440355FBB0FB240820FB3400B3455260B30C80FB240820FB3400B3455260B30320F9340145F0B34DF670B30072C715F040F0A34DF5BDE5BDD5BDC5B8517162B27C70100B44028C70100B540C10FB240830FB3400B3455260B3029C70100B4402AC70100B540D30FB240830FB3400B3455260B305C47B4405D47B5405E47B6405F47B740E60FB240830FB3400B3455260B30EC0F25C30100B440FF0F355FB553F50FB240830FB3400B3455260B30C80F9340145F0B3409A00B305C4783405DC0
:FF46B9004784405E4785405F4786400B0F0343D140FE0F0453D240FF0F0553D340FF0F0653D440A40F5142040F5252000F5352000F54520A38F82B310F27C20100000F28D201000A38F82B0B0F29C301008140FE0F2AD301008240DA0F0142050F02520A38F82B030FA6C00100360F0343B0C00100010F0453B1C0010025C70100B4C001005A0FB7C0010009DF01000ADF01002607B8C001002807B9C0010004478B40020F0B346C670B305C478B40030F0B346C670B3025C701008B40040F0B346C670B305A0F8B40070F0B346C670B300AC701008B40000F0B346C670B3009C701008B40010F0B346C670B3038C701008B40050F0B346C670B3039C701008B40060FB2
:FF47B8000B346C670B303DC701008B40080F0B346C670B3030C70100B44031C70100B540010FB240840FB3400B3455260B30010FC840495F010F042C1B0FB240840FB3400B3455260B301B36010FC840495F000F0B342C670B30030009C7010081400AC701008240010F0142000F02520A3C282C77470142784702520A3B232C87FC01004A2C49C701004AC501000A3D4A2C0147F7400247F840472C115F0CC701008B400DC701008C40060F8D400E5F0B3431250B300F478140104782400147050C02450A3D472C87FC01004A2C49C701004AC501000A3D4A2C0B34C4E60B30030004C70100010C05C501000A3D972C04C70100020C05C501000A3DC62C04C701000545
:FF48B7000C05C501000A3D9C2C04C70100090C05C501000A3DBA2C04C701000D0C05C501000A3DA22C04C70100140C05C501000A3DAE2C04C701001A0C05C501000A3DA82C04C70100210C05C501000A3DB42C04C70100240C05C501000A3DC02C04C70100250C05C501000A39492E0E0F80C0010001DF0100492E10DF010011DF0100492E020F80C0010001DF0100492E030F80C0010001DF0100492E080F80C0010001DF0100492E050F80C0010001DF0100492E0A0F80C0010001DF0100492E0B0F80C0010001DF0100492E0D0F80C0010001DF0100492E010F0CC301008140000F0DD301008240040F0142290F02520A38DB2C01478CC0010002478DC00100E22CD5
:FF49B6000CDF01000DDF0100010F8BC00100115F0CC701008B400DC701008C40200F8D40030F8E400B3431250B300F4781401047824001471F0A024703080A3BFD2C010FB5C001000BD70100242D09C7010081400AC701008240A50F01420E0F02520A38242D0BDF010081540A3D8254014789C0010002478AC0010002478B40000F0B346C670B3009C701008B40010F0B346C670B30115F0CC701008B400DC701008C40C20F8D40010F8E400B3431250B300F47814010478240014702450A39542D09C70100B4400AC70100B540600FB240810FB3400B3455260B300CC70100B4400DC70100B5406B0FB240810FB3400B3455260B3037C701005A0A0A395C2D0B34A659
:FF4AB500A50B304DC70100AA0A0A396F2DE9D00100672D6ADE01006F2DCC0FC840010FC9400B342E640B30A82D37C701005A0A0A398D2D115F0CC701008B400DC701008C40030F8D400E5F0B3431250B300F478140104782400147020C02450A398D2D0B3479610B304DC70100AA0A0A39A82D115F0CC701008B400DC701008C40060F8D400E5F0B3431250B300F478140104782400147050C02450A3D672D07C70100814008C7010082408178002E12C7010013C501000A39E72D45C70100B44046C70100B540730FB240810FB3400B3455260B30115F45C701008B4046C701008C40070F8D400E5F0B3431250B300F47814010478240014702450A39E72D010F8D404D
:FF4BB400010F8C40010F0B3479650B30850FB240810FB3400B3455260B30010F45C301008140000F46D3010082400147C5C001000247C6C001007F0F01420C0F02520A3C2F2E45DF010046DF01002F2E115F10C701008B4011C701008C40070F8D400E5F0B3431250B300F478340104784400347060C04450A392F2E1431020F8B40EB0F0B34C5600B30143512C7010013C501000A392F2E014702450A392F2E940FB240810FB3400B3455260B30010F10C301008140000F11D301008240060F0142000F02520A38442E014790C00100024791C00100482E10DF010011DF01000824030004C70100010C05C501000A3D6E2E04C70100050C05C501000A3DA62E04C70155
:FF4CB300001A0C05C501000A3D9A2E04C701001B0C05C501000A3D7C2E04C70100260C05C501000A39B02EA62E685F010F8F40105F0A0F8D400E5F070F8B400C5F0B34CE240B30B02E685480400047E840070F00420A3C932E685F1B36070F8B400C5F0B34DA620B30260F8B400C5F0B3484240B30B02E005F1B3A00721B3600479B05B02E070F8B400C5F0B34DA620B30080F80C0010001DF0100B02E070F8B400C5F0B34DA620B3000DF010001DF010003001ED70100B52EC22E21D70100B92EC52E005F015F24D70100E72E020F8140025FC82E015F025FC82E010F8140025F0A34015A8340025A844001478343024784539C0F03438300010F045384000B34C12402
:FF4DB2000B3080400B34BE240B3081409E0F03438300010F04538400000F820003000D47020C0E450A3D052F0D47030C0E450A3D092F0D47040C0E450A3D0D2F0D47050C0E450A3D112F0D47060C0E450A39172F090F8B400C5F142F050F8B400C5F142F060F8B400C5F142F070F8B400C5F142F080F8B400C5F0B3484240B3003000D47020C0E450A3D262F0D47060C0E450A392C2F240F8B400C5F292F250F8B400C5F0B3484240B3003000B3428200B30070F00438340000F0153844003478300044784000B34C1240B3085400B34BE240B3086400547800C06450A3D722F030F00438300000F015384000B34C1240B308B400B34BE240B308C400B47010C0C450A73
:FF4EB1003D722F090F00438300000F01538400054782008314064782000347830004478400800F82008314000F8200010F8040015F742F005F015F030080400047F2C00100030018387F2F800F8040812F810F8040943C842F8070004703000B3428200B3000478C4001478D400B342D200B308040005E952F6E5FCE2F7A2780400047800A0A39BE2FFF0F97C60100FF0F96C60100FF0F95C60100FE0F94C60100010FEE40000F75270C4783000D478400021F8314021F050F0C438300000F0D538400800F82008314000F8200CE2F000F97C50100000F96C50100000F95C50100010F94C501006E57CE2F010F752703000B3428200B300047C8400147C94086272D2794
:FF4FB0000047010C01450A397A68090F48438140000F4953824001478300024784000B34C1240B3083400B34BE240B3084400347010C04450A3D2C6801478300024784000B34C1240B3081400B34BE240B3082400147020C02450A395268030F4843CA40000F4953CB404A4783004B4784000B34C1240B30B4400B34BE240B30B540350FB240810FB3400B3455260B304A4783004B4784000B34C1240B308D400B34BE240B308E4018275268030F4843CA40000F4953CB404A4783004B4784000B34C1240B30B4400B34BE240B30B5402A0FB240810FB3400B3455260B304A4783004B4784000B34C1240B308D400B34BE240B308E40E8260B0F48438300000F495384A8
:FF50AF0000000F8200030F48438300000F49538400021F8314021F090F48438300000F49538400800F82008314000F8200010F8B400C5F0B34DA620B30020F8B400C5F0B34DA620B3003000D470E450A3D92680D47010C0E450A3D96680D47020C0E450A3D9A680D47030C0E450A39A068220F8B400C5F9D68170F8B400C5F9D681B0F8B400C5F9D681C0F8B400C5F0B3484240B3003000D470E450A3DB8680D47010C0E450A3DBC680D47020C0E450A3DC0680D47030C0E450A39C668150F8B400C5FC3680A0F8B400C5FC3680E0F8B400C5FC3680F0F8B400C5F0B3484240B3003000B3428200B300B0F00438300000F015384000B34C1240B308B400B47020A0A3965
:FF51AE00E468030F00438300000F01538400030F82008314000F8200F3680B47030A0A39F368030F00438300000F01538400040F82008314000F820003000B3428200B300B0F00438300000F015384000B34C1240B30824002570E69030F00438300000F01538400020F82008314000F820003000B3428200B3000479140014792407A2793400B342D200B308040005E606A050F11438140000F1253824001478300024784000B34C1240B3083400B34BE240B30844013479540165F114783001247840003471542044716520A3B76690B34C1240B3081400B34BE240B30824081540A3D82541147830012478400014782008314024782002B0F0142010F02520A3C55B9
:FF52AD006A030F11438300000F12538400060F82008314000F820015478140164782407F0F8146000F8246070F11438300000F1253840001478200831402478200446A1347800A0A39476A0B34C1240B3085400B34BE240B308640FE0F8543FF0F8653430F0542000F06520A38296A030F11439340000F125394401347830014478400010F82008314000F82007F0F8346000F8446070F11438300000F1253840003478200831404478200000F752714C70100844015C70100854016C70100864017C70100874004478040054781400647824007478340000F8346000F8246000F8146040F804600470145024503450A3DEA690B0F11438300000F125384000B34C12456
:FF53AC000B30974017548040004782000047040A0A39556A1347830014478400050F82008314000F8200556A04478340054784400647854007478640000F8646000F8546000F8446020F83460B0F11438300000F1253840003470445054506450A3D1B6A0B34C1240B30934013548040004782000047020A0A39556A0F5F105F640F8D400E5F020F8B400C5F256A010F82000F5F105F640F8D400E5F010F8B400C5F0B34CE240B30556A1147830012478400021F8314021F070F11438300000F12538400800F82008314000F82000147830002478400800F82008314000F8200000F7527556A021F8314021F070F11438300000F12538400800F82008314000F82000599
:FF54AB000F11438300000F125384001547820083141647820003000B342D200B308040005E686A0F61030062078240015F610781430A3C8254754783407647844001470342024704520A387F6A0147834202478452876AFF0F8342030F845201478343024784533F0F0342010F04520A3CC26A115F03478B4004478C40400F8D40010F8E400B3431250B300B4785400C478640115F03478B4004478C40400F8D40010F8E400B3431250B300F4783401047844003470142044702520A38B76AFF0F8143030F82530147034281400247045282400147F5400247F640C46A055F065F05478040064781400300696200479D4001479E4000479F400147A040215F225F1F4707
:FF55AA002045214522450A3DB66B015F025F800F01438340020F02538440060F0343A340000F0453A44023478300244784000B34C1240B30804000783C6B020F03439B40000F04539C401B4783001C4784000B34C1240B3085400B34BE240B308640A2501E6BA1501E6B1F470542204706520A3C1E6B05471D42854006471E5286401B4783001C478400054782008314064782003C6B040F03438300000F045384000B34C1240B3083400B34BE240B3084401B4783001C478400034782008314044782008070234783002447840000478200070F8143000F82530147460C02450A39DC6A06C70200804080784F6B8074004786C0020061620DC7020080408078596B80DB
:FF56A9007400478DC00200F46014C7020080408078636B8074004794C00200C7601BC7020080408078756B807400479BC00200030F8B400C5F0B34DA620B300B3410200B3022C7020080408078876B80740047A2C00200040F8B400C5F0B34DA620B300B34FDE70B3030C7020080408078976B80740047B0C002002AC702008D402BC702008E40A16037C7020080408078A76B80740047B7C0020031C702008D4032C702008E407B603EC7020080408078B66B80740047BEC00200080F8B400C5F0B34DA620B3003006FDF01006CDF01006DDF01006EDF0100983618350300400FB240810FB3400B3455260B30080FCA40495F49478140025F0147B4400247B540030FBB
:FF57A8000A34B45AB55A8517D46B560FB240810FB3400B3455260B304947804000518519F80E80400047CB40485F48474B43804000470B3437A00B3080400047B440355F5A0FB240810FB3400B3455260B30C8544847080A0A39E96B5E0FB240810FB3400B3455260B30C954CA57CC6B03004CDF01004DDF01004EDF01004FDF010050DF010051DF010052DF010053DF010054DF010055DF010056DF010057DF010058DF010063DF010064DF010065DF010066DF010067DF010068DF010069DF01006ADF01000300A81F090F8B40BD0F0B34C3600B30A73A416CA815376C28073F0E8040C00FA800090F8B40BD0F0B34C3600B30A73E506CA814466C28073F0E81400177
:FF58A700478043805B0047A8000300A61F090F8B40BD0F0B34C3600B30A53A646CA6155A6C26073F0E8040C00FA600090F8B40BD0F0B34C3600B30A53E736CA614696C26073F0E814001478043805B0047A60003000B3445610B3080400047A5C0010027DF010028DF010029DF01002ADF01002DDF01002EDF01002FDF010030DF010031DF010034DF010032DF010033DF010035DF010036DF010037DF0100030FA6C00100090FBDC001000B5F0C5F0B3498670B300047994001479A400B347F670B300047BAC001000147BBC001000B3470A50B3080400047BCC00100050FC000050FC100430FA505430FA705270FA200140FA3000D0FA400C00FA605070F0B3437A0D9
:FF59A6000B30804000475A0A0A39E16C050F0B3437A00B3080400047A600E26C5964C00FA805070F0B3437A00B30804000475A0A0A39F56C060F0B3437A00B3080400047A800F66C36643F0FA6063F0FA806AA362234273725372607B440355F8C0FB240820FB3400B3455260B302807B440355F9C0FB240820FB3400B3455260B300300A1372133A1362132A1352107500E804000470B45A100030046304A31DA33190FDE00EC0FDB05DB35030041DF010042DF010043DF010044DF01003FDF010040DF010045DF010046DF0100010FC7C00100010FC8C0010049DF01004ADF01004BDF0100030070DF010071DF010072DF0100800FF7C0010078DF0100800FF5C001FF
:FF5AA5000076DF0100800FF9C001007ADF010073DF010074DF01007BDF01000F5F105F010F8D400E5F0B5F0C5F0B34CE240B30FF0F97C60100FF0F96C60100FF0F95C60100FE0F94C601000300015F025F800F01438340020F02538440060F03438300000F045384000B34C1240B308B400B47FC0E804000478200020F03438300000F04538400021F8314021F040F03438300000F04538400021F8314021F0347830004478400021F8314021F070F8143000F82530147460C02450A39796D0300200F9A800100C10F9B800100190F9E8001001F9F0100CA30CA36463046369AB1010043300300030FD0050B47D100D133C53003003F0FE006C00FE0058F0FDF065F3332
:FF5BA400E31F030FE4006030DF310300050F91059138DA6D10078040101FCB65070F8B400C5FC465B165776514DF010015DF010016DF010017DF010007DF010008DF010009DF01000ADF01000BDF01000CDF01000DDF01000EDF01000FDF010010DF010011DF010012DF010013DF0100010F80C0010001DF0100010F82C0010003DF0100010F98C0010019DF010004DF010005DF010006DF01001CDF01001DDF01001EDF01001FDF010020DF010021DF010022DF010023DF010024DF0100010F8B400C5F0B3484240B30141F161F151F171F050F96009533C3B30100181F1A1F191F19301A30421FC2304331953096300C0FC485010099310A0F9A05C00FC485010050B8
:FF5CA3000F9A059933C5B301001B1F1D1F1C1F1C30C6B001009D317E0F9D051E1F201F1F1FB39F0100B49F0100DB0F9906240F9A05DB0F980695309630C231C331CF0FC4860100F30FC58601001C361D321B361431300F8B40BA0F0B34C5600B301435456528651F65070F8B400C5F13657C640B644330090FB840395FA30FB640810FB740A90FB440810FB540AE0FB240810FB3400B3455260B30C90FB240810FB3400B3455260B30C263010F8B400C5F0B3498670B300047C1C001000147C2C00100175F000F8B40000F8C404B0F8D40000F8E4000478F4001479040115F125F0B348B270B300B4783400C4784400D4785400E4786400347C3C001000447C4C00100ED
:FF5DA2000B34C4E60B30E00FB240810FB3400B3455260B30115F43C701008B4044C701008C40E80F8D40030F8E400B3431250B300B47B4400C47B540E90FB240810FB3400B3455260B30115F43C701008B4044C701008C40E80F8D40030F8E400B3431250B300F47814010478240115F01478B4002478C40640F8D400E5F0B3431250B300B47B4400C47B540EC0FB240810FB3400B3455260B30115F43C701008B4044C701008C40640F8D400E5F0B3431250B300F47814010478240115F01478B4002478C400A0F8D400E5F0B3431250B300B47B4400C47B540E90FB240810FB3400B3455260B30115F43C701008B4044C701008C400A0F8D400E5F0B3431250B300F73
:FF5EA10047B4401047B540E90FB240810FB3400B3455260B3041C70100B44042C70100B540F00FB240810FB3400B3455260B30B7630100C962CF27B126004784C00100014785C00100004701450A3D2DA80047B4400147B540F70FB240810FB3400B3455260B3000C70100B44001C70100B540010FB240820FB3400B3455260B3000C70100814001C701008240014702450A3DE16F0147010C02450A3DE36F0147020C02450A3DE56F0147030C02450A3DF16F0147040C02450A3DF56F0147050C02450A3DF96F0147060C02450A3DFD6F0147070C02450A3D01A80147080C02450A3D09A80147090C02450A3D11A801470A0C02450A3D0DA801470B0C02450A3DE56F75
:FF5FA00001470C0C02450A3D01A801470D0C02450A3DED6F01470E0C02450A3914A84A2614A84B2414A8002014A80147CC400247CD400B340BE40B3014A80B3481E30B3014A80B34F0E20B3014A80B345AE20B3014A80B342BA50B3014A80B34BDA00B3014A80147CE400247CF400B348A660B3014A80B34EF650B3014A80B34AC650B3014A80B343D630B3002C7010000C2010003C7010001D201000A3F696F010F8B400C5F0B3484240B3000C7010082C0010001C7010083C00100696F14C7010015C5010016C5010017C501000A39696F0B3456270B30696F3BA82800D50000000000000000000000000000000000000000000000000000000000000000000000002B
:FF609F00000000000000007C008001460080020000000000000000000000000000000000000000000000000000000000000000000000000000000000000000000000000000000000000000000000000000000000000000000000000000000000000000000000000000000000000000000000000000000000000000000000000000000000000000000000000000000000000000000000000000000000000000000000000000000000000000000000000000000000000000000000000000000000000000000000000000000000000000000000000000000000000000000000000000000000000000000000000000000000000000000000000000000000000000000000003D
:FF619E0000000000000000000000000000000000000000000000000000000000000000000000000000000000000000000000000000000000000000000000000000000000000000000000000000000000000000000000000000000000000000000000000000000000000000000000000000000000000000000000000000000000000000000000000000000000000000000000000000000000000000000000000000000000000000000000000000000000000000000000000000000000000000000000000000000000000000000000000000000000000000000000000000000000000000000000000000000000000000000000000000000000000000000000000000000002
:FF629D0000000000000000000000000000000000000000000000000000000000000000000000000000000000000000000000000000000000000000000000000000000000000000000000000000000000000000000000000000000000000000000000000000000000000000000000000000000000000000000000000000000000000000000000000000000000000000000000000000000000000000000000000000000000000000000000000000000000000000000000000000000000000000000000000000000000000000000000000000000000000000000000000000000000000000000000000000000000000000000000000000000000000000000000000000000002
:FF639C0000000000000000000000000000000000000000000000000000000000000000000000000000000000000000000000000000000000000000000000000000000000000000000000000000000000000000000000000000000000000000000000000000000000000000000000000000000000000000000000000000000000000000000000000000000000000000000000000000000000000000000000000000000000000000000000000000000000000000000000000000000000000000000000000000000000000000000000000000000000000000000000000000000000000000000000000000000000000000000000000000000000000000000000000000000002
:FF649B0000000000000000000000000000000000000000000000000000000000000000000000000000000000000000000000000000000000000000000000000000000000000000000000000000000000000000000000000000000000000000000000000000000000000000000000000000000000000000000000000000000000000000000000000000000000000000000000000000000000000000000000000000000000000000000000000000000000000000000000000000000000000000000000000000000000000000000000000000000000000000000000000000000000000000000000000000000000000000000000000000000000000000000000000000000002
:FF659A0000000000000000000000000000000000000000000000000000000000000000000000000000000000000000000000000000000000000000000000000000000000000000000000000000000000000000000000000000000000000000000000000000000000000000000000000000000000000000000000000000000000000000000000000000000000000000000000000000000000000000000000000000000000000000000000000000000000000000000000000000000000000000000000000000000000000000000000000000000000000000000000000000000000000000000000000000000000000000000000000000000000000000000000000000000002
:FF66990000000000000000000000000000000000000000000000000000000000000000000000000000000000000000000000000000000000000000000000000000000000000000000000000000000000000000000000000000000000000000000000000000000000000000000000000000000000000000000000000000000000000000000000000000000000000000000000000000000000000000000000000000000000000000000000000000000000000000000000000000000000000000000000000000000000000000000000000000000000000000000000000000000000000000000000000000000000000000000000000000000000000000000000000000000002
:FF67980000000000000000000000000000000000000000000000000000000000000000000000000000000000000000000000000000000000000000000000000000000000000000000000000000000000000000000000000000000000000000000000000000000000000000000000000000000000000000000000000000000000000000000000000000000000000000000000000000000000000000000000000000000000000000000000000000000000000000000000000000000000000000000000000000000000000000000000000000000000000000000000000000000000000000000000000000000000000000000000000000000000000000000000000000000002
:FF68970000000000000000000000000000000000000000000000000000000000000000000000000000000000000000000000000000000000000000000000000000000000000000000000000000000000000000000000000000000000000000000000000000000000000000000000000000000000000000000000000000000000000000000000000000000000000000000000000000000000000000000000000000000000000000000000000000000000000000000000000000000000000000000000000000000000000000000000000000000000000000000000000000000000000000000000000000000000000000000000000000000000000000000000000000000002
:FF69960000000000000000000000000000000000000000000000000000000000000000000000000000000000000000000000000000000000000000000000000000000000000000000000000000000000000000000000000000000000000000000000000000000000000000000000000000000000000000000000000000000000000000000000000000000000000000000000000000000000000000000000000000000000000000000000000000000000000000000000000000000000000000000000000000000000000000000000000000000000000000000000000000000000000000000000000000000000000000000000000000000000000000000000000000000002
:FF6A950000000000000000000000000000000000000000000000000000000000000000000000000000000000000000000000000000000000000000000000000000000000000000000000000000000000000000000000000000000000000000000000000000000000000000000000000000000000000000000000000000000000000000000000000000000000000000000000000000000000000000000000000000000000000000000000000000000000000000000000000000000000000000000000000000000000000000000000000000000000000000000000000000000000000000000000000000000000000000000000000000000000000000000000000000000002
:FF6B940000000000000000000000000000000000000000000000000000000000000000000000000000000000000000000000000000000000000000000000000000000000000000000000000000000000000000000000000000000000000000000000000000000000000000000000000000000000000000000000000000000000000000000000000000000000000000000000000000000000000000000000000000000000000000000000000000000000000000000000000000000000000000000000000000000000000000000000000000000000000000000000000000000000000000000000000000000000000000000000000000000000000000000000000000000002
:FF6C930000000000000000000000000000000000000000000000000000000000000000000000000000000000000000000000000000000000000000000000000000000000000000000000000000000000000000000000000000000000000000000000000000000000000000000000000000000000000000000000000000000000000000000000000000000000000000000000000000000000000000000000000000000000000000000000000000000000000000000000000000000000000000000000000000000000000000000000000000000000000000000000000000000000000000000000000000000000000000000000000000000000000000000000000000000002
:FF6D920000000000000000000000000000000000000000000000000000000000000000000000000000000000000000000000000000000000000000000000000000000000000000000000000000000000000000000000000000000000000000000000000000000000000000000000000000000000000000000000000000000000000000000000000000000000000000000000000000000000000000000000000000000000000000000000000000000000000000000000000000000000000000000000000000000000000000000000000000000000000000000000000000000000000000000000000000000000000000000000000000000000000000000000000000000002
:FF6E910000000000000000000000000000000000000000000000000000000000000000000000000000000000000000000000000000000000000000000000000000000000000000000000000000000000000000000000000000000000000000000000000000000000000000000000000000000000000000000000000000000000000000000000000000000000000000000000000000000000000000000000000000000000000000000000000000000000000000000000000000000000000000000000000000000000000000000000000000000000000000000000000000000000000000000000000000000000000000000000000000000000000000000000000000000002
:FF6F900000000000000000000000000000000000000000000000000000000000000000000000000000000000000000000000000000000000000000000000000000000000000000000000000000000000000000000000000000000000000000000000000000000000000000000000000000000000000000000000000000000000000000000000000000000000000000000000000000000000000000000000000000000000000000000000000000000000000000000000000000000000000000000000000000000000000000000000000000000000000000000000000000000000000000000000000000000000000000000000000000000000000000000000000000000002
:FF708F0000000000000000000000000000000000000000000000000000000000000000000000000000000000000000000000000000000000000000000000000000000000000000000000000000000000000000000000000000000000000000000000000000000000000000000000000000000000000000000000000000000000000000000000000000000000000000000000000000000000000000000000000000000000000000000000000000000000000000000000000000000000000000000000000000000000000000000000000000000000000000000000000000000000000000000000000000000000000000000000000000000000000000000000000000000002
:FF718E0000000000000000000000000000000000000000000000000000000000000000000000000000000000000000000000000000000000000000000000000000000000000000000000000000000000000000000000000000000000000000000000000000000000000000000000000000000000000000000000000000000000000000000000000000000000000000000000000000000000000000000000000000000000000000000000000000000000000000000000000000000000000000000000000000000000000000000000000000000000000000000000000000000000000000000000000000000000000000000000000000000000000000000000000000000002
:FF728D0000000000000000000000000000000000000000000000000000000000000000000000000000000000000000000000000000000000000000000000000000000000000000000000000000000000000000000000000000000000000000000000000000000000000000000000000000000000000000000000000000000000000000000000000000000000000000000000000000000000000000000000000000000000000000000000000000000000000000000000000000000000000000000000000000000000000000000000000000000000000000000000000000000000000000000000000000000000000000000000000000000000000000000000000000000002
:FF738C0000000000000000000000000000000000000000000000000000000000000000000000000000000000000000000000000000000000000000000000000000000000000000000000000000000000000000000000000000000000000000000000000000000000000000000000000000000000000000000000000000000000000000000000000000000000000000000000000000000000000000000000000000000000000000000000000000000000000000000000000000000000000000000000000000000000000000000000000000000000000000000000000000000000000000000000000000000000000000000000000000000000000000000000000000000002
:FF748B0000000000000000000000000000000000000000000000000000000000000000000000000000000000000000000000000000000000000000000000000000000000000000000000000000000000000000000000000000000000000000000000000000000000000000000000000000000000000000000000000000000000000000000000000000000000000000000000000000000000000000000000000000000000000000000000000000000000000000000000000000000000000000000000000000000000000000000000000000000000000000000000000000000000000000000000000000000000000000000000000000000000000000000000000000000002
:FF758A0000000000000000000000000000000000000000000000000000000000000000000000000000000000000000000000000000000000000000000000000000000000000000000000000000000000000000000000000000000000000000000000000000000000000000000000000000000000000000000000000000000000000000000000000000000000000000000000000000000000000000000000000000000000000000000000000000000000000000000000000000000000000000000000000000000000000000000000000000000000000000000000000000000000000000000000000000000000000000000000000000000000000000000000000000000002
:FF76890000000000000000000000000000000000000000000000000000000000000000000000000000000000000000000000000000000000000000000000000000000000000000000000000000000000000000000000000000000000000000000000000000000000000000000000000000000000000000000000000000000000000000000000000000000000000000000000000000000000000000000000000000000000000000000000000000000000000000000000000000000000000000000000000000000000000000000000000000000000000000000000000000000000000000000000000000000000000000000000000000000000000000000000000000000002
:FF77880000000000000000000000000000000000000000000000000000000000000000000000000000000000000000000000000000000000000000000000000000000000000000000000000000000000000000000000000000000000000000000000000000000000000000000000000000000000000000000000000000000000000000000000000000000000000000000000000000000000000000000000000000000000000000000000000000000000000000000000000000000000000000000000000000000000000000000000000000000000000000000000000000000000000000000000000000000000000000000000000000000000000000000000000000000002
:FF78870000000000000000000000000000000000000000000000000000000000000000000000000000000000000000000000000000000000000000000000000000000000000000000000000000000000000000000000000000000000000000000000000000000000000000000000000000000000000000000000000000000000000000000000000000000000000000000000000000000000000000000000000000000000000000000000000000000000000000000000000000000000000000000000000000000000000000000000000000000000000000000000000000000000000000000000000000000000000000000000000000000000000000000000000000000002
